{
  "contractName": "Bridge",
  "abi": [
    {
      "inputs": [
        {
          "internalType": "uint8",
          "name": "chainID",
          "type": "uint8"
        },
        {
          "internalType": "address[]",
          "name": "initialRelayers",
          "type": "address[]"
        },
        {
          "internalType": "uint256",
          "name": "initialRelayerThreshold",
          "type": "uint256"
        },
        {
          "internalType": "uint256",
          "name": "fee",
          "type": "uint256"
        },
        {
          "internalType": "uint256",
          "name": "expiry",
          "type": "uint256"
        }
      ],
      "stateMutability": "nonpayable",
      "type": "constructor"
    },
    {
      "anonymous": false,
      "inputs": [
        {
          "indexed": true,
          "internalType": "uint8",
          "name": "destinationChainID",
          "type": "uint8"
        },
        {
          "indexed": true,
          "internalType": "bytes32",
          "name": "resourceID",
          "type": "bytes32"
        },
        {
          "indexed": true,
          "internalType": "uint64",
          "name": "depositNonce",
          "type": "uint64"
        }
      ],
      "name": "Deposit",
      "type": "event"
    },
    {
      "anonymous": false,
      "inputs": [
        {
          "indexed": true,
          "internalType": "address",
          "name": "operator",
          "type": "address"
        }
      ],
      "name": "OperatorAdded",
      "type": "event"
    },
    {
      "anonymous": false,
      "inputs": [
        {
          "indexed": true,
          "internalType": "address",
          "name": "operator",
          "type": "address"
        }
      ],
      "name": "OperatorRemoved",
      "type": "event"
    },
    {
      "anonymous": false,
      "inputs": [
        {
          "indexed": false,
          "internalType": "address",
          "name": "account",
          "type": "address"
        }
      ],
      "name": "Paused",
      "type": "event"
    },
    {
      "anonymous": false,
      "inputs": [
        {
          "indexed": true,
          "internalType": "uint8",
          "name": "originChainID",
          "type": "uint8"
        },
        {
          "indexed": true,
          "internalType": "uint64",
          "name": "depositNonce",
          "type": "uint64"
        },
        {
          "indexed": true,
          "internalType": "enum Bridge.ProposalStatus",
          "name": "status",
          "type": "uint8"
        },
        {
          "indexed": false,
          "internalType": "bytes32",
          "name": "resourceID",
          "type": "bytes32"
        },
        {
          "indexed": false,
          "internalType": "bytes32",
          "name": "dataHash",
          "type": "bytes32"
        }
      ],
      "name": "ProposalEvent",
      "type": "event"
    },
    {
      "anonymous": false,
      "inputs": [
        {
          "indexed": true,
          "internalType": "uint8",
          "name": "originChainID",
          "type": "uint8"
        },
        {
          "indexed": true,
          "internalType": "uint64",
          "name": "depositNonce",
          "type": "uint64"
        },
        {
          "indexed": true,
          "internalType": "enum Bridge.ProposalStatus",
          "name": "status",
          "type": "uint8"
        },
        {
          "indexed": false,
          "internalType": "bytes32",
          "name": "resourceID",
          "type": "bytes32"
        }
      ],
      "name": "ProposalVote",
      "type": "event"
    },
    {
      "anonymous": false,
      "inputs": [
        {
          "indexed": true,
          "internalType": "address",
          "name": "relayer",
          "type": "address"
        }
      ],
      "name": "RelayerAdded",
      "type": "event"
    },
    {
      "anonymous": false,
      "inputs": [
        {
          "indexed": true,
          "internalType": "address",
          "name": "relayer",
          "type": "address"
        }
      ],
      "name": "RelayerRemoved",
      "type": "event"
    },
    {
      "anonymous": false,
      "inputs": [
        {
          "indexed": true,
          "internalType": "uint256",
          "name": "newThreshold",
          "type": "uint256"
        }
      ],
      "name": "RelayerThresholdChanged",
      "type": "event"
    },
    {
      "anonymous": false,
      "inputs": [
        {
          "indexed": true,
          "internalType": "bytes32",
          "name": "role",
          "type": "bytes32"
        },
        {
          "indexed": true,
          "internalType": "address",
          "name": "account",
          "type": "address"
        },
        {
          "indexed": true,
          "internalType": "address",
          "name": "sender",
          "type": "address"
        }
      ],
      "name": "RoleGranted",
      "type": "event"
    },
    {
      "anonymous": false,
      "inputs": [
        {
          "indexed": true,
          "internalType": "bytes32",
          "name": "role",
          "type": "bytes32"
        },
        {
          "indexed": true,
          "internalType": "address",
          "name": "account",
          "type": "address"
        },
        {
          "indexed": true,
          "internalType": "address",
          "name": "sender",
          "type": "address"
        }
      ],
      "name": "RoleRevoked",
      "type": "event"
    },
    {
      "anonymous": false,
      "inputs": [
        {
          "indexed": false,
          "internalType": "address",
          "name": "account",
          "type": "address"
        }
      ],
      "name": "Unpaused",
      "type": "event"
    },
    {
      "inputs": [],
      "name": "DEFAULT_ADMIN_ROLE",
      "outputs": [
        {
          "internalType": "bytes32",
          "name": "",
          "type": "bytes32"
        }
      ],
      "stateMutability": "view",
      "type": "function"
    },
    {
      "inputs": [],
      "name": "OPERATOR_ROLE",
      "outputs": [
        {
          "internalType": "bytes32",
          "name": "",
          "type": "bytes32"
        }
      ],
      "stateMutability": "view",
      "type": "function"
    },
    {
      "inputs": [],
      "name": "RELAYER_ROLE",
      "outputs": [
        {
          "internalType": "bytes32",
          "name": "",
          "type": "bytes32"
        }
      ],
      "stateMutability": "view",
      "type": "function"
    },
    {
      "inputs": [],
      "name": "_chainID",
      "outputs": [
        {
          "internalType": "uint8",
          "name": "",
          "type": "uint8"
        }
      ],
      "stateMutability": "view",
      "type": "function"
    },
    {
      "inputs": [
        {
          "internalType": "uint8",
          "name": "",
          "type": "uint8"
        }
      ],
      "name": "_depositCounts",
      "outputs": [
        {
          "internalType": "uint64",
          "name": "",
          "type": "uint64"
        }
      ],
      "stateMutability": "view",
      "type": "function"
    },
    {
      "inputs": [
        {
          "internalType": "uint64",
          "name": "",
          "type": "uint64"
        },
        {
          "internalType": "uint8",
          "name": "",
          "type": "uint8"
        }
      ],
      "name": "_depositRecords",
      "outputs": [
        {
          "internalType": "bytes",
          "name": "",
          "type": "bytes"
        }
      ],
      "stateMutability": "view",
      "type": "function"
    },
    {
      "inputs": [],
      "name": "_expiry",
      "outputs": [
        {
          "internalType": "uint256",
          "name": "",
          "type": "uint256"
        }
      ],
      "stateMutability": "view",
      "type": "function"
    },
    {
      "inputs": [],
      "name": "_fee",
      "outputs": [
        {
          "internalType": "uint256",
          "name": "",
          "type": "uint256"
        }
      ],
      "stateMutability": "view",
      "type": "function"
    },
    {
      "inputs": [
        {
          "internalType": "uint72",
          "name": "",
          "type": "uint72"
        },
        {
          "internalType": "bytes32",
          "name": "",
          "type": "bytes32"
        },
        {
          "internalType": "address",
          "name": "",
          "type": "address"
        }
      ],
      "name": "_hasVotedOnProposal",
      "outputs": [
        {
          "internalType": "bool",
          "name": "",
          "type": "bool"
        }
      ],
      "stateMutability": "view",
      "type": "function"
    },
    {
      "inputs": [
        {
          "internalType": "uint72",
          "name": "",
          "type": "uint72"
        },
        {
          "internalType": "bytes32",
          "name": "",
          "type": "bytes32"
        }
      ],
      "name": "_proposals",
      "outputs": [
        {
          "internalType": "bytes32",
          "name": "_resourceID",
          "type": "bytes32"
        },
        {
          "internalType": "bytes32",
          "name": "_dataHash",
          "type": "bytes32"
        },
        {
          "internalType": "enum Bridge.ProposalStatus",
          "name": "_status",
          "type": "uint8"
        },
        {
          "internalType": "uint256",
          "name": "_proposedBlock",
          "type": "uint256"
        }
      ],
      "stateMutability": "view",
      "type": "function"
    },
    {
      "inputs": [],
      "name": "_relayerThreshold",
      "outputs": [
        {
          "internalType": "uint256",
          "name": "",
          "type": "uint256"
        }
      ],
      "stateMutability": "view",
      "type": "function"
    },
    {
      "inputs": [
        {
          "internalType": "bytes32",
          "name": "",
          "type": "bytes32"
        }
      ],
      "name": "_resourceIDToHandlerAddress",
      "outputs": [
        {
          "internalType": "address",
          "name": "",
          "type": "address"
        }
      ],
      "stateMutability": "view",
      "type": "function"
    },
    {
      "inputs": [
        {
          "internalType": "uint8",
          "name": "",
          "type": "uint8"
        }
      ],
      "name": "_specialFee",
      "outputs": [
        {
          "internalType": "uint256",
          "name": "",
          "type": "uint256"
        }
      ],
      "stateMutability": "view",
      "type": "function"
    },
    {
      "inputs": [],
      "name": "_totalOperators",
      "outputs": [
        {
          "internalType": "uint256",
          "name": "",
          "type": "uint256"
        }
      ],
      "stateMutability": "view",
      "type": "function"
    },
    {
      "inputs": [],
      "name": "_totalProposals",
      "outputs": [
        {
          "internalType": "uint256",
          "name": "",
          "type": "uint256"
        }
      ],
      "stateMutability": "view",
      "type": "function"
    },
    {
      "inputs": [],
      "name": "_totalRelayers",
      "outputs": [
        {
          "internalType": "uint256",
          "name": "",
          "type": "uint256"
        }
      ],
      "stateMutability": "view",
      "type": "function"
    },
    {
      "inputs": [],
      "name": "_wtokenAddress",
      "outputs": [
        {
          "internalType": "address",
          "name": "",
          "type": "address"
        }
      ],
      "stateMutability": "view",
      "type": "function"
    },
    {
      "inputs": [
        {
          "internalType": "bytes32",
          "name": "role",
          "type": "bytes32"
        }
      ],
      "name": "getRoleAdmin",
      "outputs": [
        {
          "internalType": "bytes32",
          "name": "",
          "type": "bytes32"
        }
      ],
      "stateMutability": "view",
      "type": "function"
    },
    {
      "inputs": [
        {
          "internalType": "bytes32",
          "name": "role",
          "type": "bytes32"
        },
        {
          "internalType": "uint256",
          "name": "index",
          "type": "uint256"
        }
      ],
      "name": "getRoleMember",
      "outputs": [
        {
          "internalType": "address",
          "name": "",
          "type": "address"
        }
      ],
      "stateMutability": "view",
      "type": "function"
    },
    {
      "inputs": [
        {
          "internalType": "bytes32",
          "name": "role",
          "type": "bytes32"
        }
      ],
      "name": "getRoleMemberCount",
      "outputs": [
        {
          "internalType": "uint256",
          "name": "",
          "type": "uint256"
        }
      ],
      "stateMutability": "view",
      "type": "function"
    },
    {
      "inputs": [
        {
          "internalType": "bytes32",
          "name": "role",
          "type": "bytes32"
        },
        {
          "internalType": "address",
          "name": "account",
          "type": "address"
        }
      ],
      "name": "grantRole",
      "outputs": [],
      "stateMutability": "nonpayable",
      "type": "function"
    },
    {
      "inputs": [
        {
          "internalType": "bytes32",
          "name": "role",
          "type": "bytes32"
        },
        {
          "internalType": "address",
          "name": "account",
          "type": "address"
        }
      ],
      "name": "hasRole",
      "outputs": [
        {
          "internalType": "bool",
          "name": "",
          "type": "bool"
        }
      ],
      "stateMutability": "view",
      "type": "function"
    },
    {
      "inputs": [],
      "name": "paused",
      "outputs": [
        {
          "internalType": "bool",
          "name": "",
          "type": "bool"
        }
      ],
      "stateMutability": "view",
      "type": "function"
    },
    {
      "inputs": [
        {
          "internalType": "bytes32",
          "name": "role",
          "type": "bytes32"
        },
        {
          "internalType": "address",
          "name": "account",
          "type": "address"
        }
      ],
      "name": "renounceRole",
      "outputs": [],
      "stateMutability": "nonpayable",
      "type": "function"
    },
    {
      "inputs": [
        {
          "internalType": "bytes32",
          "name": "role",
          "type": "bytes32"
        },
        {
          "internalType": "address",
          "name": "account",
          "type": "address"
        }
      ],
      "name": "revokeRole",
      "outputs": [],
      "stateMutability": "nonpayable",
      "type": "function"
    },
    {
      "inputs": [
        {
          "internalType": "address",
          "name": "relayer",
          "type": "address"
        }
      ],
      "name": "isRelayer",
      "outputs": [
        {
          "internalType": "bool",
          "name": "",
          "type": "bool"
        }
      ],
      "stateMutability": "view",
      "type": "function"
    },
    {
      "inputs": [
        {
          "internalType": "address",
          "name": "operator",
          "type": "address"
        }
      ],
      "name": "isOperator",
      "outputs": [
        {
          "internalType": "bool",
          "name": "",
          "type": "bool"
        }
      ],
      "stateMutability": "view",
      "type": "function"
    },
    {
      "inputs": [
        {
          "internalType": "address",
          "name": "newAdmin",
          "type": "address"
        }
      ],
      "name": "renounceAdmin",
      "outputs": [],
      "stateMutability": "nonpayable",
      "type": "function"
    },
    {
      "inputs": [],
      "name": "adminPauseTransfers",
      "outputs": [],
      "stateMutability": "nonpayable",
      "type": "function"
    },
    {
      "inputs": [],
      "name": "adminUnpauseTransfers",
      "outputs": [],
      "stateMutability": "nonpayable",
      "type": "function"
    },
    {
      "inputs": [
        {
          "internalType": "uint256",
          "name": "newThreshold",
          "type": "uint256"
        }
      ],
      "name": "adminChangeRelayerThreshold",
      "outputs": [],
      "stateMutability": "nonpayable",
      "type": "function"
    },
    {
      "inputs": [
        {
          "internalType": "address",
          "name": "relayerAddress",
          "type": "address"
        }
      ],
      "name": "adminAddRelayer",
      "outputs": [],
      "stateMutability": "nonpayable",
      "type": "function"
    },
    {
      "inputs": [
        {
          "internalType": "address",
          "name": "relayerAddress",
          "type": "address"
        }
      ],
      "name": "adminRemoveRelayer",
      "outputs": [],
      "stateMutability": "nonpayable",
      "type": "function"
    },
    {
      "inputs": [
        {
          "internalType": "address",
          "name": "operatorAddress",
          "type": "address"
        }
      ],
      "name": "adminAddOperator",
      "outputs": [],
      "stateMutability": "nonpayable",
      "type": "function"
    },
    {
      "inputs": [
        {
          "internalType": "address",
          "name": "operatorAddress",
          "type": "address"
        }
      ],
      "name": "adminRemoveOperator",
      "outputs": [],
      "stateMutability": "nonpayable",
      "type": "function"
    },
    {
      "inputs": [
        {
          "internalType": "address",
          "name": "handlerAddress",
          "type": "address"
        },
        {
          "internalType": "bytes32",
          "name": "resourceID",
          "type": "bytes32"
        },
        {
          "internalType": "address",
          "name": "tokenAddress",
          "type": "address"
        }
      ],
      "name": "adminSetResource",
      "outputs": [],
      "stateMutability": "nonpayable",
      "type": "function"
    },
    {
      "inputs": [
        {
          "internalType": "address",
          "name": "handlerAddress",
          "type": "address"
        },
        {
          "internalType": "bytes32",
          "name": "resourceID",
          "type": "bytes32"
        },
        {
          "internalType": "address",
          "name": "contractAddress",
          "type": "address"
        },
        {
          "internalType": "bytes4",
          "name": "depositFunctionSig",
          "type": "bytes4"
        },
        {
          "internalType": "uint256",
          "name": "depositFunctionDepositerOffset",
          "type": "uint256"
        },
        {
          "internalType": "bytes4",
          "name": "executeFunctionSig",
          "type": "bytes4"
        }
      ],
      "name": "adminSetGenericResource",
      "outputs": [],
      "stateMutability": "nonpayable",
      "type": "function"
    },
    {
      "inputs": [
        {
          "internalType": "address",
          "name": "handlerAddress",
          "type": "address"
        },
        {
          "internalType": "address",
          "name": "tokenAddress",
          "type": "address"
        }
      ],
      "name": "adminSetBurnable",
      "outputs": [],
      "stateMutability": "nonpayable",
      "type": "function"
    },
    {
      "inputs": [
        {
          "internalType": "uint8",
          "name": "originChainID",
          "type": "uint8"
        },
        {
          "internalType": "uint64",
          "name": "depositNonce",
          "type": "uint64"
        },
        {
          "internalType": "bytes32",
          "name": "dataHash",
          "type": "bytes32"
        }
      ],
      "name": "getProposal",
      "outputs": [
        {
          "components": [
            {
              "internalType": "bytes32",
              "name": "_resourceID",
              "type": "bytes32"
            },
            {
              "internalType": "bytes32",
              "name": "_dataHash",
              "type": "bytes32"
            },
            {
              "internalType": "address[]",
              "name": "_yesVotes",
              "type": "address[]"
            },
            {
              "internalType": "address[]",
              "name": "_noVotes",
              "type": "address[]"
            },
            {
              "internalType": "enum Bridge.ProposalStatus",
              "name": "_status",
              "type": "uint8"
            },
            {
              "internalType": "uint256",
              "name": "_proposedBlock",
              "type": "uint256"
            }
          ],
          "internalType": "struct Bridge.Proposal",
          "name": "",
          "type": "tuple"
        }
      ],
      "stateMutability": "view",
      "type": "function"
    },
    {
      "inputs": [
        {
          "internalType": "uint256",
          "name": "newFee",
          "type": "uint256"
        }
      ],
      "name": "adminChangeFee",
      "outputs": [],
      "stateMutability": "nonpayable",
      "type": "function"
    },
    {
      "inputs": [
        {
          "internalType": "uint256",
          "name": "newFee",
          "type": "uint256"
        },
        {
          "internalType": "uint8",
          "name": "chainID",
          "type": "uint8"
        }
      ],
      "name": "adminChangeSpecialFee",
      "outputs": [],
      "stateMutability": "nonpayable",
      "type": "function"
    },
    {
      "inputs": [
        {
          "internalType": "uint8",
          "name": "destinationChainID",
          "type": "uint8"
        }
      ],
      "name": "getFee",
      "outputs": [
        {
          "internalType": "uint256",
          "name": "",
          "type": "uint256"
        }
      ],
      "stateMutability": "view",
      "type": "function"
    },
    {
      "inputs": [
        {
          "internalType": "address",
          "name": "handlerAddress",
          "type": "address"
        },
        {
          "internalType": "address",
          "name": "newBridgeAddress",
          "type": "address"
        }
      ],
      "name": "adminUpdateBridgeAddress",
      "outputs": [],
      "stateMutability": "nonpayable",
      "type": "function"
    },
    {
      "inputs": [
        {
          "internalType": "address",
          "name": "handlerAddress",
          "type": "address"
        },
        {
          "internalType": "address",
          "name": "tokenAddress",
          "type": "address"
        },
        {
          "internalType": "address",
          "name": "recipient",
          "type": "address"
        },
        {
          "internalType": "uint256",
          "name": "amountOrTokenID",
          "type": "uint256"
        }
      ],
      "name": "adminWithdraw",
      "outputs": [],
      "stateMutability": "nonpayable",
      "type": "function"
    },
    {
      "inputs": [
        {
          "internalType": "uint8",
          "name": "destinationChainID",
          "type": "uint8"
        },
        {
          "internalType": "bytes32",
          "name": "resourceID",
          "type": "bytes32"
        },
        {
          "internalType": "bytes",
          "name": "data",
          "type": "bytes"
        }
      ],
      "name": "deposit",
      "outputs": [],
      "stateMutability": "payable",
      "type": "function"
    },
    {
      "inputs": [
        {
          "internalType": "uint8",
          "name": "destinationChainID",
          "type": "uint8"
        },
        {
          "internalType": "bytes32",
          "name": "resourceID",
          "type": "bytes32"
        },
        {
          "internalType": "bytes",
          "name": "data",
          "type": "bytes"
        }
      ],
      "name": "depositETH",
      "outputs": [],
      "stateMutability": "payable",
      "type": "function"
    },
    {
      "inputs": [
        {
          "internalType": "uint8",
          "name": "chainID",
          "type": "uint8"
        },
        {
          "internalType": "uint64",
          "name": "depositNonce",
          "type": "uint64"
        },
        {
          "internalType": "bytes32",
          "name": "resourceID",
          "type": "bytes32"
        },
        {
          "internalType": "bytes32",
          "name": "dataHash",
          "type": "bytes32"
        }
      ],
      "name": "voteProposal",
      "outputs": [],
      "stateMutability": "nonpayable",
      "type": "function"
    },
    {
      "inputs": [
        {
          "internalType": "uint8",
          "name": "chainID",
          "type": "uint8"
        },
        {
          "internalType": "uint64",
          "name": "depositNonce",
          "type": "uint64"
        },
        {
          "internalType": "bytes32",
          "name": "dataHash",
          "type": "bytes32"
        }
      ],
      "name": "cancelProposal",
      "outputs": [],
      "stateMutability": "nonpayable",
      "type": "function"
    },
    {
      "inputs": [
        {
          "internalType": "uint8",
          "name": "chainID",
          "type": "uint8"
        },
        {
          "internalType": "uint64",
          "name": "depositNonce",
          "type": "uint64"
        },
        {
          "internalType": "bytes",
          "name": "data",
          "type": "bytes"
        },
        {
          "internalType": "bytes32",
          "name": "resourceID",
          "type": "bytes32"
        }
      ],
      "name": "executeProposal",
      "outputs": [],
      "stateMutability": "nonpayable",
      "type": "function"
    },
    {
      "inputs": [
        {
          "internalType": "address payable[]",
          "name": "addrs",
          "type": "address[]"
        },
        {
          "internalType": "uint256[]",
          "name": "amounts",
          "type": "uint256[]"
        }
      ],
      "name": "transferFunds",
      "outputs": [],
      "stateMutability": "nonpayable",
      "type": "function"
    }
  ],
  "bytecode": "0x60806040523480156200001157600080fd5b50604051620039b5380380620039b5833981016040819052620000349162000336565b6000805460ff1990811682556002805490911660ff88161790556003849055600783905560088290556200006990336200010e565b620000956040516200007b906200043c565b60405190819003902060006001600160e01b036200012716565b620000a76040516200007b9062000413565b60005b84518110156200010257620000ef604051620000c6906200043c565b6040518091039020868381518110620000db57fe5b60200260200101516200013c60201b60201c565b60048054600190810190915501620000aa565b5050505050506200051c565b6200012382826001600160e01b03620001b716565b5050565b60009182526001602052604090912060020155565b6000828152600160205260409020600201546200017590620001666001600160e01b036200023b16565b6001600160e01b036200023f16565b6200010e576040517f08c379a0000000000000000000000000000000000000000000000000000000008152600401620001ae9062000465565b60405180910390fd5b6000828152600160209081526040909120620001de9183906200220b6200026e821b17901c565b156200012357620001f76001600160e01b036200023b16565b6001600160a01b0316816001600160a01b0316837f2f8788117e7eff1d82e926ec794901d17c78024a50270940304540a733656f0d60405160405180910390a45050565b3390565b60008281526001602090815260408220620002659184906200217d6200028e821b17901c565b90505b92915050565b600062000265836001600160a01b0384166001600160e01b03620002ae16565b600062000265836001600160a01b0384166001600160e01b036200030616565b6000620002c583836001600160e01b036200030616565b620002fd5750815460018181018455600084815260208082209093018490558454848252828601909352604090209190915562000268565b50600062000268565b60009081526001919091016020526040902054151590565b80516001600160a01b03811681146200026857600080fd5b600080600080600060a086880312156200034e578081fd5b85516200035b8162000509565b602087810151919650906001600160401b0381111562000379578283fd5b80880189601f8201126200038b578384fd5b80519150620003a46200039e83620004e9565b620004c2565b82815283810190828501858502840186018d1015620003c1578687fd5b8693505b84841015620003ef57620003da8d826200031e565b835260019390930192918501918501620003c5565b5060408b015160608c01516080909c01519a9d919c509a9998509650505050505050565b7f4f50455241544f525f524f4c45000000000000000000000000000000000000008152600d0190565b7f52454c415945525f524f4c4500000000000000000000000000000000000000008152600c0190565b6020808252602f908201527f416363657373436f6e74726f6c3a2073656e646572206d75737420626520616e60408201527f2061646d696e20746f206772616e740000000000000000000000000000000000606082015260800190565b6040518181016001600160401b0381118282101715620004e157600080fd5b604052919050565b60006001600160401b03821115620004ff578081fd5b5060209081020190565b60ff811681146200051957600080fd5b50565b613489806200052c6000396000f3fe6080604052600436106102c95760003560e01c806380ae1c2811610175578063beab7131116100dc578063d547741f11610095578063f5b541a61161006f578063f5b541a614610871578063f69bd04414610886578063febce92c1461089b578063ffaac0eb146108bb576102c9565b8063d547741f14610829578063d7a9cd7914610849578063f179637c1461085e576102c9565b8063beab71311461077d578063c5b37c221461079f578063c5ec8970146107b4578063ca15c873146107c9578063cb10f215146107e9578063cdb0f73a14610809576102c9565b8063926d7d7f1161012e578063926d7d7f146106d157806395b15e98146106e65780639d5773e0146107065780639d82dd631461071b578063a217fddf1461073b578063a9cf69fa14610750576102c9565b806380ae1c281461061c57806384db809f146106315780638c0c2631146106515780639010d07c1461067157806391c404ac1461069157806391d14854146106b1576102c9565b80634b0b919d116102345780635c975abb116101ed5780636d70f7ae116101c75780636d70f7ae146105a7578063780cf004146105c75780637febe63f146105e7578063802aabe814610607576102c9565b80635c975abb146105525780635e1fab0f1461056757806369a8c24614610587576102c9565b80634b0b919d146104665780634e0560051461049357806350598719146104b357806353ec4105146104e3578063541d5548146105055780635a1ad87c14610532576102c9565b80632f2ff15d116102865780632f2ff15d14610399578063320b9006146103b957806336568abe146103d95780633ee7094a146103f95780634454b20d146104265780634603ae3814610446576102c9565b806305e2ca17146102ce578063083132c4146102e357806317f03ce5146103195780631a5ae9ad146103395780631ff013f114610359578063248a9ca314610379575b600080fd5b6102e16102dc3660046128ea565b6108d0565b005b3480156102ef57600080fd5b506103036102fe3660046128cf565b610a49565b6040516103109190612b9b565b60405180910390f35b34801561032557600080fd5b506102e1610334366004612936565b610a5c565b34801561034557600080fd5b506103036103543660046128cf565b610b4f565b34801561036557600080fd5b506102e1610374366004612973565b610b61565b34801561038557600080fd5b506103036103943660046127cb565b610f73565b3480156103a557600080fd5b506102e16103b43660046127e3565b610f88565b3480156103c557600080fd5b506102e16103d43660046125cc565b610fd0565b3480156103e557600080fd5b506102e16103f43660046127e3565b61106f565b34801561040557600080fd5b50610419610414366004612851565b6110b1565b6040516103109190612c9c565b34801561043257600080fd5b506102e16104413660046129c2565b611155565b34801561045257600080fd5b506102e1610461366004612743565b61134d565b34801561047257600080fd5b506104866104813660046128cf565b6113db565b60405161031091906133c6565b34801561049f57600080fd5b506102e16104ae3660046127cb565b6113f6565b3480156104bf57600080fd5b506104d36104ce366004612885565b611431565b6040516103109493929190612bff565b3480156104ef57600080fd5b506104f8611469565b6040516103109190612b3f565b34801561051157600080fd5b506105256105203660046125cc565b611478565b6040516103109190612b90565b34801561053e57600080fd5b506102e161054d3660046126d4565b611497565b34801561055e57600080fd5b50610525611531565b34801561057357600080fd5b506102e16105823660046125cc565b61153b565b34801561059357600080fd5b506102e16105a2366004612828565b61155c565b3480156105b357600080fd5b506105256105c23660046125cc565b6115ac565b3480156105d357600080fd5b506102e16105e2366004612643565b6115bd565b3480156105f357600080fd5b506105256106023660046128b0565b611630565b34801561061357600080fd5b50610303611656565b34801561062857600080fd5b506102e161165c565b34801561063d57600080fd5b506104f861064c3660046127cb565b61166e565b34801561065d57600080fd5b506102e161066c36600461260b565b611689565b34801561067d57600080fd5b506104f861068c366004612807565b6116f6565b34801561069d57600080fd5b506102e16106ac3660046127cb565b61171d565b3480156106bd57600080fd5b506105256106cc3660046127e3565b61174c565b3480156106dd57600080fd5b5061030361176a565b3480156106f257600080fd5b506102e161070136600461260b565b611781565b34801561071257600080fd5b506103036117b7565b34801561072757600080fd5b506102e16107363660046125cc565b6117bd565b34801561074757600080fd5b50610303611840565b34801561075c57600080fd5b5061077061076b366004612936565b611845565b6040516103109190613351565b34801561078957600080fd5b50610792611996565b60405161031091906133da565b3480156107ab57600080fd5b5061030361199f565b3480156107c057600080fd5b506103036119a5565b3480156107d557600080fd5b506103036107e43660046127cb565b6119ab565b3480156107f557600080fd5b506102e1610804366004612693565b6119c2565b34801561081557600080fd5b506102e16108243660046125cc565b611a53565b34801561083557600080fd5b506102e16108443660046127e3565b611ae4565b34801561085557600080fd5b50610303611b1e565b6102e161086c3660046128ea565b611b24565b34801561087d57600080fd5b50610303611e34565b34801561089257600080fd5b50610303611e40565b3480156108a757600080fd5b506102e16108b63660046125cc565b611e46565b3480156108c757600080fd5b506102e1611ec9565b6108d8611ed9565b60006108e385611efc565b905080341461090d5760405162461bcd60e51b815260040161090490612ea9565b60405180910390fd5b6000848152600c60205260409020546001600160a01b0316806109425760405162461bcd60e51b815260040161090490612f7e565b60ff86166000818152600a6020908152604080832080546001600160401b0380821660010190811667ffffffffffffffff1990921682179092558452600d83528184209484529390915290206109999086866123c8565b506040516338995da960e01b815282906001600160a01b038216906338995da9906109d2908a908c90879033908d908d90600401612c4d565b600060405180830381600087803b1580156109ec57600080fd5b505af1158015610a00573d6000803e3d6000fd5b50505050816001600160401b0316878960ff167fdbb69440df8433824a026ef190652f29929eb64b4d1d5d2a69be8afe3e6eaed860405160405180910390a45050505050505050565b6000610a5482611efc565b90505b919050565b610a64611f26565b68ffffffffffffffff00600883901b1660ff8416176001600160481b0381166000908152600e6020908152604080832085845290915290206004808083015460ff1690811115610ab057fe5b1415610ace5760405162461bcd60e51b815260040161090490612f10565b600854610adf438360050154611f70565b11610afc5760405162461bcd60e51b815260040161090490613003565b6004818101805460ff191682179055815460018301546040516001600160401b0388169260ff8a169260008051602061343483398151915292610b40929190612bf1565b60405180910390a45050505050565b600b6020526000908152604090205481565b610b69611fb2565b610b71611ed9565b68ffffffffffffffff00600884901b1660ff8516176001600160481b0381166000908152600e602090815260408083208584528252808320868452600c909252909120546001600160a01b0316610bda5760405162461bcd60e51b8152600401610904906132cb565b60048082015460019160ff90911690811115610bf257fe5b1115610c105760405162461bcd60e51b81526004016109049061317e565b6001600160481b0382166000908152600f60209081526040808320868452825280832033845290915290205460ff1615610c5c5760405162461bcd60e51b815260040161090490612e15565b60048082015460ff1690811115610c6f57fe5b610de7576006805460019081019091556040805160c0810182528681526020810186905281518381528083018352909291830191816020016020820280368337505050815260408051600080825260208083018452808501929092526001838501819052436060909501949094526001600160481b0387168152600e82528281208882528252829020845181558482015193810193909355908301518051610d1d9260028501920190612446565b5060608201518051610d39916003840191602090910190612446565b5060808201518160040160006101000a81548160ff02191690836004811115610d5e57fe5b021790555060a082015181600501559050503381600201600081548110610d8157fe5b600091825260209091200180546001600160a01b0319166001600160a01b039290921691909117905560015b856001600160401b03168760ff166000805160206134348339815191528787604051610dda929190612bf1565b60405180910390a4610e5d565b600854610df8438360050154611f70565b1115610e12576004818101805460ff191682179055610dad565b80600101548314610e355760405162461bcd60e51b8152600401610904906132a0565b600281018054600181018255600091825260209091200180546001600160a01b031916331790555b60048181015460ff1681811115610e7057fe5b14610f6b576001600160481b0382166000908152600f6020908152604080832086845282528083203384529091529020805460ff1916600117905560048082015460ff1690811115610ebe57fe5b856001600160401b03168760ff167f25f8daaa4635a7729927ba3f5b3d59cc3320aca7c32c9db4e7ca7b957434364087604051610efb9190612b9b565b60405180910390a46001600354111580610f1b5750600354600282015410155b15610f6b5760048101805460ff191660029081179091556040516001600160401b0387169060ff89169060008051602061343483398151915290610f629089908990612bf1565b60405180910390a45b505050505050565b60009081526001602052604090206002015490565b600082815260016020526040902060020154610fa6906106cc611fdd565b610fc25760405162461bcd60e51b815260040161090490612dc6565b610fcc8282611fe1565b5050565b610fd8612050565b610ff5604051610fe790612b0e565b60405180910390208261174c565b6110115760405162461bcd60e51b81526004016109049061326b565b61102e60405161102090612b0e565b604051809103902082611ae4565b6040516001600160a01b038216907f80c0b871b97b595b16a7741c1b06fed0c6f6f558639f18ccbce50724325dc40d90600090a25060058054600019019055565b611077611fdd565b6001600160a01b0316816001600160a01b0316146110a75760405162461bcd60e51b815260040161090490613302565b610fcc8282612077565b600d6020908152600092835260408084208252918352918190208054825160026001831615610100026000190190921691909104601f81018590048502820185019093528281529290919083018282801561114d5780601f106111225761010080835404028352916020019161114d565b820191906000526020600020905b81548152906001019060200180831161113057829003601f168201915b505050505081565b61115d611fb2565b611165611ed9565b6000818152600c602090815260408083205490516001600160a01b039091169268ffffffffffffffff00600889901b1660ff8a16179290916111ad9185918991899101612ae2565b60408051601f1981840301815291815281516020928301206001600160481b0385166000908152600e84528281208282529093529082209092509060048083015460ff16908111156111fb57fe5b14156112195760405162461bcd60e51b815260040161090490612ce6565b600260048083015460ff169081111561122e57fe5b1461124b5760405162461bcd60e51b815260040161090490612caf565b8060010154821461126e5760405162461bcd60e51b815260040161090490612ed9565b6004818101805460ff1916600317905581546000818152600c60205260409081902054905163712467f960e11b81526001600160a01b0390911692839263e248cff2926112bf928d918d9101612c2a565b600060405180830381600087803b1580156112d957600080fd5b505af11580156112ed573d6000803e3d6000fd5b50505060048084015460ff16915081111561130457fe5b896001600160401b03168b60ff1660008051602061343483398151915285600001548660010154604051611339929190612bf1565b60405180910390a450505050505050505050565b611355612050565b60005b838110156113d45784848281811061136c57fe5b905060200201602081019061138191906125cc565b6001600160a01b03166108fc84848481811061139957fe5b905060200201359081150290604051600060405180830381858888f193505050501580156113cb573d6000803e3d6000fd5b50600101611358565b5050505050565b600a602052600090815260409020546001600160401b031681565b6113fe612050565b600381905560405181907fa20d6b84cd798a24038be305eff8a45ca82ef54a2aa2082005d8e14c0a4746c890600090a250565b600e60209081526000928352604080842090915290825290208054600182015460048301546005909301549192909160ff9091169084565b6009546001600160a01b031681565b6000610a5460405161148990612b27565b60405180910390208361174c565b61149f612050565b6000858152600c60205260409081902080546001600160a01b0319166001600160a01b038916908117909155905163de319d9960e01b815287919063de319d99906114f69089908990899089908990600401612bbb565b600060405180830381600087803b15801561151057600080fd5b505af1158015611524573d6000803e3d6000fd5b5050505050505050505050565b60005460ff165b90565b611543612050565b61154e600082610f88565b61155960003361106f565b50565b6115646120e6565b60ff81166000908152600b6020526040902054828114156115975760405162461bcd60e51b8152600401610904906130c7565b5060ff166000908152600b6020526040902055565b6000610a5460405161148990612b0e565b6115c5612050565b604051636ce5768960e11b815284906001600160a01b0382169063d9caed12906115f790879087908790600401612b53565b600060405180830381600087803b15801561161157600080fd5b505af1158015611625573d6000803e3d6000fd5b505050505050505050565b600f60209081526000938452604080852082529284528284209052825290205460ff1681565b60045481565b6116646120e6565b61166c612122565b565b600c602052600090815260409020546001600160a01b031681565b611691612050565b6040516307b7ed9960e01b815282906001600160a01b038216906307b7ed99906116bf908590600401612b3f565b600060405180830381600087803b1580156116d957600080fd5b505af11580156116ed573d6000803e3d6000fd5b50505050505050565b6000828152600160205260408120611714908363ffffffff61217116565b90505b92915050565b611725612050565b8060075414156117475760405162461bcd60e51b815260040161090490613234565b600755565b6000828152600160205260408120611714908363ffffffff61217d16565b60405161177690612b27565b604051809103902081565b611789612050565b60405163645c8a4b60e01b815282906001600160a01b0382169063645c8a4b906116bf908590600401612b3f565b60065481565b6117c5612050565b6117d4604051610fe790612b27565b6117f05760405162461bcd60e51b815260040161090490612e72565b6117ff60405161102090612b27565b6040516001600160a01b038216907f10e1f7ce9fd7d1b90a66d13a2ab3cb8dd7f29f3f8d520b143b063ccfbab6906b90600090a25060048054600019019055565b600081565b61184d6124a7565b68ffffffffffffffff00600884901b1660ff8516176001600160481b0381166000908152600e60209081526040808320868452825291829020825160c08101845281548152600182015481840152600282018054855181860281018601875281815292959394938601938301828280156118f057602002820191906000526020600020905b81546001600160a01b031681526001909101906020018083116118d2575b505050505081526020016003820180548060200260200160405190810160405280929190818152602001828054801561195257602002820191906000526020600020905b81546001600160a01b03168152600190910190602001808311611934575b505050918352505060048281015460209092019160ff169081111561197357fe5b600481111561197e57fe5b81526020016005820154815250509150509392505050565b60025460ff1681565b60075481565b60085481565b6000818152600160205260408120610a5490612192565b6119ca612050565b6000828152600c60205260409081902080546001600160a01b0319166001600160a01b0386169081179091559051635c7d1b9b60e11b815284919063b8fa373690611a1b9086908690600401612ba4565b600060405180830381600087803b158015611a3557600080fd5b505af1158015611a49573d6000803e3d6000fd5b5050505050505050565b611a5b612050565b611a6a604051610fe790612b27565b15611a875760405162461bcd60e51b815260040161090490613090565b611aa4604051611a9690612b27565b604051809103902082610f88565b6040516001600160a01b038216907f03580ee9f53a62b7cb409a2cb56f9be87747dd15017afc5cef6eef321e4fb2c590600090a250600480546001019055565b600082815260016020526040902060020154611b02906106cc611fdd565b6110a75760405162461bcd60e51b815260040161090490612fb3565b60035481565b611b2c611ed9565b6000611b3785611efc565b905080341015611b595760405162461bcd60e51b815260040161090490613147565b6000848152600c60205260409020546001600160a01b031680611b8e5760405162461bcd60e51b815260040161090490612f7e565b3482900360843580821015611bb55760405162461bcd60e51b815260040161090490612d58565b6000836001600160a01b03166353ec41056040518163ffffffff1660e01b8152600401602060405180830381600087803b158015611bf257600080fd5b505af1158015611c06573d6000803e3d6000fd5b505050506040513d601f19601f82011682018060405250810190611c2a91906125ef565b90506001600160a01b038116611c525760405162461bcd60e51b815260040161090490613062565b806001600160a01b031663d0e30db0846040518263ffffffff1660e01b81526004016000604051808303818588803b158015611c8d57600080fd5b505af1158015611ca1573d6000803e3d6000fd5b505060405163a9059cbb60e01b81526001600160a01b038516935063a9059cbb9250611cd4915087908790600401612b77565b602060405180830381600087803b158015611cee57600080fd5b505af1158015611d02573d6000803e3d6000fd5b505050506040513d601f19601f82011682018060405250810190611d2691906127ab565b5060ff89166000818152600a6020908152604080832080546001600160401b0380821660010190811667ffffffffffffffff1990921682179092558452600d8352818420948452939091529020611d7e9089896123c8565b506000859050806001600160a01b03166338995da98b8d85338e8e6040518763ffffffff1660e01b8152600401611dba96959493929190612c4d565b600060405180830381600087803b158015611dd457600080fd5b505af1158015611de8573d6000803e3d6000fd5b50505050816001600160401b03168a8c60ff167fdbb69440df8433824a026ef190652f29929eb64b4d1d5d2a69be8afe3e6eaed860405160405180910390a45050505050505050505050565b60405161177690612b0e565b60055481565b611e4e612050565b611e5d604051610fe790612b0e565b15611e7a5760405162461bcd60e51b815260040161090490613110565b611e89604051611a9690612b0e565b6040516001600160a01b038216907fac6fa858e9350a46cec16539926e0fde25b7629f84b5a72bffaae4df888ae86d90600090a250600580546001019055565b611ed16120e6565b61166c61219d565b60005460ff161561166c5760405162461bcd60e51b815260040161090490613038565b60ff81166000908152600b60205260408120548015611f1c579050610a57565b5050600754610a57565b611f3160003361174c565b80611f545750611f54604051611f4690612b27565b60405180910390203361174c565b61166c5760405162461bcd60e51b815260040161090490612d8f565b600061171483836040518060400160405280601e81526020017f536166654d6174683a207375627472616374696f6e206f766572666c6f7700008152506121df565b611fc1604051611f4690612b27565b61166c5760405162461bcd60e51b8152600401610904906131c8565b3390565b6000828152600160205260409020611fff908263ffffffff61220b16565b15610fcc5761200c611fdd565b6001600160a01b0316816001600160a01b0316837f2f8788117e7eff1d82e926ec794901d17c78024a50270940304540a733656f0d60405160405180910390a45050565b61205b60003361174c565b61166c5760405162461bcd60e51b8152600401610904906131fd565b6000828152600160205260409020612095908263ffffffff61222016565b15610fcc576120a2611fdd565b6001600160a01b0316816001600160a01b0316837ff6391f5c32d9c69d2a47ea670b442974b53935d1edc7fd64eb21e047a839171b60405160405180910390a45050565b6120f160003361174c565b806121065750612106604051611f4690612b0e565b61166c5760405162461bcd60e51b815260040161090490612f47565b61212a611ed9565b6000805460ff191660011790556040517f62e78cea01bee320cd4e420270b5ea74000d11b0c9f74754ebdbfc544b05a25890612167903390612b3f565b60405180910390a1565b60006117148383612235565b6000611714836001600160a01b03841661227a565b6000610a5482612292565b6121a5612296565b6000805460ff191690556040517f5db9ee0a495bf2e6ff9c91a7834c1ba4fdd244a5e8aa4e537bd38aeae4b073aa90612167903390612b3f565b600081848411156122035760405162461bcd60e51b81526004016109049190612c9c565b505050900390565b6000611714836001600160a01b0384166122b8565b6000611714836001600160a01b038416612302565b815460009082106122585760405162461bcd60e51b815260040161090490612d16565b82600001828154811061226757fe5b9060005260206000200154905092915050565b60009081526001919091016020526040902054151590565b5490565b60005460ff1661166c5760405162461bcd60e51b815260040161090490612e44565b60006122c4838361227a565b6122fa57508154600181810184556000848152602080822090930184905584548482528286019093526040902091909155611717565b506000611717565b600081815260018301602052604081205480156123be578354600019808301919081019060009087908390811061233557fe5b906000526020600020015490508087600001848154811061235257fe5b60009182526020808320909101929092558281526001898101909252604090209084019055865487908061238257fe5b60019003818190600052602060002001600090559055866001016000878152602001908152602001600020600090556001945050505050611717565b6000915050611717565b828054600181600116156101000203166002900490600052602060002090601f016020900481019282601f106124095782800160ff19823516178555612436565b82800160010185558215612436579182015b8281111561243657823582559160200191906001019061241b565b506124429291506124df565b5090565b82805482825590600052602060002090810192821561249b579160200282015b8281111561249b57825182546001600160a01b0319166001600160a01b03909116178255602090920191600190910190612466565b506124429291506124f9565b6040805160c0810182526000808252602082018190526060928201839052828201929092529060808201908152602001600081525090565b61153891905b8082111561244257600081556001016124e5565b61153891905b808211156124425780546001600160a01b03191681556001016124ff565b60008083601f84011261252e578182fd5b5081356001600160401b03811115612544578182fd5b602083019150836020808302850101111561255e57600080fd5b9250929050565b60008083601f840112612576578182fd5b5081356001600160401b0381111561258c578182fd5b60208301915083602082850101111561255e57600080fd5b80356001600160401b038116811461171757600080fd5b803560ff8116811461171757600080fd5b6000602082840312156125dd578081fd5b81356125e8816133f3565b9392505050565b600060208284031215612600578081fd5b81516125e8816133f3565b6000806040838503121561261d578081fd5b8235612628816133f3565b91506020830135612638816133f3565b809150509250929050565b60008060008060808587031215612658578182fd5b8435612663816133f3565b93506020850135612673816133f3565b92506040850135612683816133f3565b9396929550929360600135925050565b6000806000606084860312156126a7578283fd5b83356126b2816133f3565b92506020840135915060408401356126c9816133f3565b809150509250925092565b60008060008060008060c087890312156126ec578182fd5b86356126f7816133f3565b955060208701359450604087013561270e816133f3565b9350606087013561271e81613408565b92506080870135915060a087013561273581613408565b809150509295509295509295565b60008060008060408587031215612758578384fd5b84356001600160401b038082111561276e578586fd5b61277a8883890161251d565b90965094506020870135915080821115612792578384fd5b5061279f8782880161251d565b95989497509550505050565b6000602082840312156127bc578081fd5b815180151581146125e8578182fd5b6000602082840312156127dc578081fd5b5035919050565b600080604083850312156127f5578182fd5b823591506020830135612638816133f3565b60008060408385031215612819578182fd5b50508035926020909101359150565b6000806040838503121561283a578182fd5b82359150602083013560ff81168114612638578182fd5b60008060408385031215612863578182fd5b61286d84846125a4565b915061287c84602085016125bb565b90509250929050565b60008060408385031215612897578182fd5b82356128a28161341e565b946020939093013593505050565b6000806000606084860312156128c4578081fd5b83356126b28161341e565b6000602082840312156128e0578081fd5b61171483836125bb565b600080600080606085870312156128ff578182fd5b61290986866125bb565b93506020850135925060408501356001600160401b0381111561292a578283fd5b61279f87828801612565565b60008060006060848603121561294a578081fd5b61295485856125bb565b925061296385602086016125a4565b9150604084013590509250925092565b60008060008060808587031215612988578182fd5b61299286866125bb565b935060208501356001600160401b03811681146129ad578283fd5b93969395505050506040820135916060013590565b6000806000806000608086880312156129d9578283fd5b6129e387876125bb565b94506129f287602088016125a4565b935060408601356001600160401b03811115612a0c578384fd5b612a1888828901612565565b96999598509660600135949350505050565b6000815180845260208085019450808401835b83811015612a625781516001600160a01b031687529582019590820190600101612a3d565b509495945050505050565b60008284528282602086013780602084860101526020601f19601f85011685010190509392505050565b60008151808452815b81811015612abc57602081850181015186830182015201612aa0565b81811115612acd5782602083870101525b50601f01601f19169290920160200192915050565b60006bffffffffffffffffffffffff198560601b16825282846014840137910160140190815292915050565b6c4f50455241544f525f524f4c4560981b8152600d0190565b6b52454c415945525f524f4c4560a01b8152600c0190565b6001600160a01b0391909116815260200190565b6001600160a01b039384168152919092166020820152604081019190915260600190565b6001600160a01b03929092168252602082015260400190565b901515815260200190565b90815260200190565b9182526001600160a01b0316602082015260400190565b9485526001600160a01b039390931660208501526001600160e01b03199182166040850152606084015216608082015260a00190565b918252602082015260400190565b8481526020810184905260808101612c16846133e8565b604083015282606083015295945050505050565b600084825260406020830152612c44604083018486612a6d565b95945050505050565b86815260ff861660208201526001600160401b03851660408201526001600160a01b038416606082015260a060808201819052600090612c909083018486612a6d565b98975050505050505050565b6000602082526117146020830184612a97565b6020808252601c908201527f70726f706f73616c20616c7265616479207472616e7366657272656400000000604082015260600190565b60208082526016908201527570726f706f73616c206973206e6f742061637469766560501b604082015260600190565b60208082526022908201527f456e756d657261626c655365743a20696e646578206f7574206f6620626f756e604082015261647360f01b606082015260800190565b6020808252601d908201527f6d73672e76616c756520616e642064617461206d69736d617463686564000000604082015260600190565b6020808252601e908201527f73656e646572206973206e6f742072656c61796572206f722061646d696e0000604082015260600190565b6020808252602f908201527f416363657373436f6e74726f6c3a2073656e646572206d75737420626520616e60408201526e0818591b5a5b881d1bc819dc985b9d608a1b606082015260800190565b6020808252601590820152741c995b185e595c88185b1c9958591e481d9bdd1959605a1b604082015260600190565b60208082526014908201527314185d5cd8589b194e881b9bdd081c185d5cd95960621b604082015260600190565b6020808252601f908201527f6164647220646f65736e277420686176652072656c6179657220726f6c652100604082015260600190565b602080825260169082015275125b98dbdc9c9958dd08199959481cdd5c1c1b1a595960521b604082015260600190565b6020808252601b908201527f6461746120646f65736e2774206d617463682064617461686173680000000000604082015260600190565b6020808252601a908201527f50726f706f73616c20616c72656164792063616e63656c6c6564000000000000604082015260600190565b6020808252601f908201527f73656e646572206973206e6f74206f70657261746f72206f722061646d696e00604082015260600190565b6020808252818101527f7265736f757263654944206e6f74206d617070656420746f2068616e646c6572604082015260600190565b60208082526030908201527f416363657373436f6e74726f6c3a2073656e646572206d75737420626520616e60408201526f2061646d696e20746f207265766f6b6560801b606082015260800190565b6020808252818101527f50726f706f73616c206e6f7420617420657870697279207468726573686f6c64604082015260600190565b60208082526010908201526f14185d5cd8589b194e881c185d5cd95960821b604082015260600190565b6020808252601490820152730beeee8ded6cadc82c8c8e4cae6e640d2e64060f60631b604082015260600190565b6020808252601e908201527f6164647220616c7265616479206861732072656c6179657220726f6c65210000604082015260600190565b60208082526029908201527f43757272656e74207370656369616c2066656520657175616c7320746f20746860408201526865206e65772066656560b81b606082015260800190565b6020808252601f908201527f6164647220616c726561647920686173206f70657261746f7220726f6c652100604082015260600190565b60208082526019908201527f496e73756666696369656e742066656520737570706c69656400000000000000604082015260600190565b6020808252602a908201527f70726f706f73616c20616c7265616479207061737365642f65786563757465646040820152690bd8d85b98d95b1b195960b21b606082015260800190565b6020808252818101527f73656e64657220646f65736e277420686176652072656c6179657220726f6c65604082015260600190565b6020808252601e908201527f73656e64657220646f65736e277420686176652061646d696e20726f6c650000604082015260600190565b6020808252601f908201527f43757272656e742066656520697320657175616c20746f206e65772066656500604082015260600190565b6020808252818101527f6164647220646f65736e27742068617665206f70657261746f7220726f6c6521604082015260600190565b6020808252601190820152700c8c2e8c2d0c2e6d040dad2e6dac2e8c6d607b1b604082015260600190565b60208082526019908201527f6e6f2068616e646c657220666f72207265736f75726365494400000000000000604082015260600190565b6020808252602f908201527f416363657373436f6e74726f6c3a2063616e206f6e6c792072656e6f756e636560408201526e103937b632b9903337b91039b2b63360891b606082015260800190565b6000602082528251602083015260208301516040830152604083015160c0606084015261338160e0840182612a2a565b6060850151848203601f19016080860152915061339e8183612a2a565b6133ab60808701516133e8565b60a086015260a086015160c086015280935050505092915050565b6001600160401b0391909116815260200190565b60ff91909116815260200190565b8060058110610a5757fe5b6001600160a01b038116811461155957600080fd5b6001600160e01b03198116811461155957600080fd5b6001600160481b038116811461155957600080fdfe803c5a12f6bde629cea32e63d4b92d1b560816a6fb72e939d3c89e1cab650417a2646970667358221220c026d7261cd6969e1a48720700091532e1747879dca22d1ad3f7a4bf1b9d4b0464736f6c63430006040033",
  "source": "pragma solidity 0.6.4;\npragma experimental ABIEncoderV2;\n\nimport \"@openzeppelin/contracts/access/AccessControl.sol\";\nimport \"./utils/Pausable.sol\";\nimport \"./utils/SafeMath.sol\";\nimport \"./interfaces/IDepositExecute.sol\";\nimport \"./interfaces/IBridge.sol\";\nimport \"./interfaces/IERCHandler.sol\";\nimport \"./interfaces/IGenericHandler.sol\";\nimport \"./interfaces/IWETH.sol\";\n\n/**\n    @title Facilitates deposits, creation and votiing of deposit proposals, and deposit executions.\n    @author ChainSafe Systems.\n */\ncontract Bridge is Pausable, AccessControl, SafeMath {\n\n    uint8   public _chainID;\n    uint256 public _relayerThreshold;\n    uint256 public _totalRelayers;\n    uint256 public _totalOperators;\n    uint256 public _totalProposals;\n    uint256 public _fee;\n    uint256 public _expiry;\n    address public _wtokenAddress;\n\n    enum Vote {No, Yes}\n\n    enum ProposalStatus {Inactive, Active, Passed, Executed, Cancelled}\n\n    struct Proposal {\n        bytes32 _resourceID;\n        bytes32 _dataHash;\n        address[] _yesVotes;\n        address[] _noVotes;\n        ProposalStatus _status;\n        uint256 _proposedBlock;\n    }\n\n    // destinationChainID => number of deposits\n    mapping(uint8 => uint64) public _depositCounts;\n    // destinationID ==> specailFee other than _fee\n    mapping(uint8 => uint256) public _specialFee;\n    // resourceID => handler address\n    mapping(bytes32 => address) public _resourceIDToHandlerAddress;\n    // depositNonce => destinationChainID => bytes\n    mapping(uint64 => mapping(uint8 => bytes)) public _depositRecords;\n    // destinationChainID + depositNonce => dataHash => Proposal\n    mapping(uint72 => mapping(bytes32 => Proposal)) public _proposals;\n    // destinationChainID + depositNonce => dataHash => relayerAddress => bool\n    mapping(uint72 => mapping(bytes32 => mapping(address => bool))) public _hasVotedOnProposal;\n \n\n    event RelayerThresholdChanged(uint256 indexed newThreshold);\n    event RelayerAdded(address indexed relayer);\n    event RelayerRemoved(address indexed relayer);\n    event OperatorAdded(address indexed operator);\n    event OperatorRemoved(address indexed operator);    \n    event Deposit(\n        uint8   indexed destinationChainID,\n        bytes32 indexed resourceID,\n        uint64  indexed depositNonce\n    );\n    event ProposalEvent(\n        uint8           indexed originChainID,\n        uint64          indexed depositNonce,\n        ProposalStatus  indexed status,\n        bytes32 resourceID,\n        bytes32 dataHash\n    );\n\n    event ProposalVote(\n        uint8   indexed originChainID,\n        uint64  indexed depositNonce,\n        ProposalStatus indexed status,\n        bytes32 resourceID\n    );\n\n    bytes32 public constant RELAYER_ROLE = keccak256(\"RELAYER_ROLE\");\n    bytes32 public constant OPERATOR_ROLE = keccak256(\"OPERATOR_ROLE\");\n\n    modifier onlyAdmin() {\n        _onlyAdmin();\n        _;\n    }\n\n    modifier onlyAdminOrRelayer() {\n        _onlyAdminOrRelayer();\n        _;\n    }\n\n    modifier onlyRelayers() {\n        _onlyRelayers();\n        _;\n    }\n\n    modifier onlyOperators() {\n        _onlyOperators();\n        _;\n    }\n\n    modifier onlyAdminOrOperator() {\n        _onlyAdminOrOperator();\n        _;\n    }\n       \n    function _onlyAdminOrRelayer() private {\n        require(hasRole(DEFAULT_ADMIN_ROLE, msg.sender) || hasRole(RELAYER_ROLE, msg.sender),\n            \"sender is not relayer or admin\");\n    }\n\n    function _onlyAdminOrOperator() private {\n        require(hasRole(DEFAULT_ADMIN_ROLE, msg.sender) || hasRole(OPERATOR_ROLE, msg.sender),\n            \"sender is not operator or admin\");\n    }\n\n    function _onlyAdmin() private {\n        require(hasRole(DEFAULT_ADMIN_ROLE, msg.sender), \"sender doesn't have admin role\");\n    }\n\n    function _onlyRelayers() private {\n        require(hasRole(RELAYER_ROLE, msg.sender), \"sender doesn't have relayer role\");\n    }\n\n    function _onlyOperators() private {\n        require(hasRole(OPERATOR_ROLE, msg.sender), \"sender doesn't have relayer role\");\n    }\n\n    /**\n        @notice Initializes Bridge, creates and grants {msg.sender} the admin role,\n        creates and grants {initialRelayers} the relayer role.\n        @param chainID ID of chain the Bridge contract exists on.\n        @param initialRelayers Addresses that should be initially granted the relayer role.\n        @param initialRelayerThreshold Number of votes needed for a deposit proposal to be considered passed.\n     */\n    constructor (uint8 chainID, address[] memory initialRelayers, uint256 initialRelayerThreshold, uint256 fee, uint256 expiry) public {\n        _chainID = chainID;\n        _relayerThreshold = initialRelayerThreshold;\n        _fee = fee;\n        _expiry = expiry;\n\n        _setupRole(DEFAULT_ADMIN_ROLE, msg.sender);\n        _setRoleAdmin(RELAYER_ROLE, DEFAULT_ADMIN_ROLE);\n        _setRoleAdmin(OPERATOR_ROLE, DEFAULT_ADMIN_ROLE);\n\n        for (uint256 i; i < initialRelayers.length; i++) {\n            grantRole(RELAYER_ROLE, initialRelayers[i]);\n            _totalRelayers++;\n        }\n\n    }\n\n    /**\n        @notice Returns true if {relayer} has the relayer role.\n        @param relayer Address to check.\n     */\n    function isRelayer(address relayer) external view returns (bool) {\n        return hasRole(RELAYER_ROLE, relayer);\n    }\n\n    /**\n        @notice Returns true if {operator} has the operator role.\n        @param operator Address to check.\n     */\n    function isOperator(address operator) external view returns (bool) {\n        return hasRole(OPERATOR_ROLE, operator);\n    }\n\n    /**\n        @notice Removes admin role from {msg.sender} and grants it to {newAdmin}.\n        @notice Only callable by an address that currently has the admin role.\n        @param newAdmin Address that admin role will be granted to.\n     */\n    function renounceAdmin(address newAdmin) external onlyAdmin {\n        grantRole(DEFAULT_ADMIN_ROLE, newAdmin);\n        renounceRole(DEFAULT_ADMIN_ROLE, msg.sender);\n    }\n\n    /**\n        @notice Pauses deposits, proposal creation and voting, and deposit executions.\n        @notice Only callable by an address that currently has the admin role.\n     */\n    function adminPauseTransfers() external onlyAdminOrOperator {\n        _pause();\n    }\n\n    /**\n        @notice Unpauses deposits, proposal creation and voting, and deposit executions.\n        @notice Only callable by an address that currently has the admin role.\n     */\n    function adminUnpauseTransfers() external onlyAdminOrOperator {\n        _unpause();\n    }\n\n    /**\n        @notice Modifies the number of votes required for a proposal to be considered passed.\n        @notice Only callable by an address that currently has the admin role.\n        @param newThreshold Value {_relayerThreshold} will be changed to.\n        @notice Emits {RelayerThresholdChanged} event.\n     */\n    function adminChangeRelayerThreshold(uint256 newThreshold) external onlyAdmin {\n        _relayerThreshold = newThreshold;\n        emit RelayerThresholdChanged(newThreshold);\n    }\n\n    /**\n        @notice Grants {relayerAddress} the relayer role and increases {_totalRelayer} count.\n        @notice Only callable by an address that currently has the admin role.\n        @param relayerAddress Address of relayer to be added.\n        @notice Emits {RelayerAdded} event.\n     */\n    function adminAddRelayer(address relayerAddress) external onlyAdmin {\n        require(!hasRole(RELAYER_ROLE, relayerAddress), \"addr already has relayer role!\");\n        grantRole(RELAYER_ROLE, relayerAddress);\n        emit RelayerAdded(relayerAddress);\n        _totalRelayers++;\n    }\n\n    /**\n        @notice Removes relayer role for {relayerAddress} and decreases {_totalRelayer} count.\n        @notice Only callable by an address that currently has the admin role.\n        @param relayerAddress Address of relayer to be removed.\n        @notice Emits {RelayerRemoved} event.\n     */\n    function adminRemoveRelayer(address relayerAddress) external onlyAdmin {\n        require(hasRole(RELAYER_ROLE, relayerAddress), \"addr doesn't have relayer role!\");\n        revokeRole(RELAYER_ROLE, relayerAddress);\n        emit RelayerRemoved(relayerAddress);\n        _totalRelayers--;\n    }\n\n    /**\n        @notice Grants {operatorAddress} the relayer role and increases {_totalOperator} count.\n        @notice Only callable by an address that currently has the admin role.\n        @param operatorAddress Address of operator to be added.\n        @notice Emits {OperatorAdded} event.\n     */\n    function adminAddOperator(address operatorAddress) external onlyAdmin {\n        require(!hasRole(OPERATOR_ROLE, operatorAddress), \"addr already has operator role!\");\n        grantRole(OPERATOR_ROLE, operatorAddress);\n        emit OperatorAdded(operatorAddress);\n        _totalOperators++;\n    }\n\n    /**\n        @notice Removes operator role for {operatorAddress} and decreases {_totalOperator} count.\n        @notice Only callable by an address that currently has the admin role.\n        @param operatorAddress Address of relayer to be removed.\n        @notice Emits {OperatorRemoved} event.\n     */\n    function adminRemoveOperator(address operatorAddress) external onlyAdmin {\n        require(hasRole(OPERATOR_ROLE, operatorAddress), \"addr doesn't have operator role!\");\n        revokeRole(OPERATOR_ROLE, operatorAddress);\n        emit OperatorRemoved(operatorAddress);\n        _totalOperators--;\n    }\n\n    /**\n        @notice Sets a new resource for handler contracts that use the IERCHandler interface,\n        and maps the {handlerAddress} to {resourceID} in {_resourceIDToHandlerAddress}.\n        @notice Only callable by an address that currently has the admin role.\n        @param handlerAddress Address of handler resource will be set for.\n        @param resourceID ResourceID to be used when making deposits.\n        @param tokenAddress Address of contract to be called when a deposit is made and a deposited is executed.\n     */\n    function adminSetResource(address handlerAddress, bytes32 resourceID, address tokenAddress) external onlyAdmin {\n        _resourceIDToHandlerAddress[resourceID] = handlerAddress;\n        IERCHandler handler = IERCHandler(handlerAddress);\n        handler.setResource(resourceID, tokenAddress);\n    }\n\n    /**\n        @notice Sets a new resource for handler contracts that use the IGenericHandler interface,\n        and maps the {handlerAddress} to {resourceID} in {_resourceIDToHandlerAddress}.\n        @notice Only callable by an address that currently has the admin role.\n        @param handlerAddress Address of handler resource will be set for.\n        @param resourceID ResourceID to be used when making deposits.\n        @param contractAddress Address of contract to be called when a deposit is made and a deposited is executed.\n     */\n    function adminSetGenericResource(\n        address handlerAddress,\n        bytes32 resourceID,\n        address contractAddress,\n        bytes4 depositFunctionSig,\n        uint256 depositFunctionDepositerOffset,\n        bytes4 executeFunctionSig\n    ) external onlyAdmin {\n        _resourceIDToHandlerAddress[resourceID] = handlerAddress;\n        IGenericHandler handler = IGenericHandler(handlerAddress);\n        handler.setResource(resourceID, contractAddress, depositFunctionSig, depositFunctionDepositerOffset, executeFunctionSig);\n    }\n\n    /**\n        @notice Sets a resource as burnable for handler contracts that use the IERCHandler interface.\n        @notice Only callable by an address that currently has the admin role.\n        @param handlerAddress Address of handler resource will be set for.\n        @param tokenAddress Address of contract to be called when a deposit is made and a deposited is executed.\n     */\n    function adminSetBurnable(address handlerAddress, address tokenAddress) external onlyAdmin {\n        IERCHandler handler = IERCHandler(handlerAddress);\n        handler.setBurnable(tokenAddress);\n    }\n\n    /**\n        @notice Returns a proposal.\n        @param originChainID Chain ID deposit originated from.\n        @param depositNonce ID of proposal generated by proposal's origin Bridge contract.\n        @param dataHash Hash of data to be provided when deposit proposal is executed.\n        @return Proposal which consists of:\n        - _dataHash Hash of data to be provided when deposit proposal is executed.\n        - _yesVotes Number of votes in favor of proposal.\n        - _noVotes Number of votes against proposal.\n        - _status Current status of proposal.\n     */\n    function getProposal(uint8 originChainID, uint64 depositNonce, bytes32 dataHash) external view returns (Proposal memory) {\n        uint72 nonceAndID = (uint72(depositNonce) << 8) | uint72(originChainID);\n        return _proposals[nonceAndID][dataHash];\n    }\n\n    /**\n        @notice Changes deposit fee.\n        @notice Only callable by admin.\n        @param newFee Value {_fee} will be updated to.\n     */\n    function adminChangeFee(uint256 newFee) external onlyAdmin {\n        require(_fee != newFee, \"Current fee is equal to new fee\");\n        _fee = newFee;\n    }\n\n    /**\n        @notice Changes deposit fee.\n        @notice Only callable by admin.\n        @param newFee Value {_specialFee} will be updated to.\n        @param chainID Value {_specialFeeChainID} will be updated to\n     */\n    function adminChangeSpecialFee(uint256 newFee, uint8 chainID) external onlyAdminOrOperator {\n        uint256 current = _specialFee[chainID];\n        require((current != newFee), \"Current special fee equals to the new fee\");\n        _specialFee[chainID] = newFee;\n    }\n\n    /**\n        @notice Get bridge fee, Returns fee of destionation chainID.\n        @param destinationChainID Value destination chainID\n        @return _fee\n     */\n    function _getFee(uint8 destinationChainID) internal view returns (uint256) {\n        uint256 special = _specialFee[destinationChainID];\n        if (special != 0) {\n            return special;\n        } else {\n            return _fee;\n        }\n    }\n\n    function getFee(uint8 destinationChainID) external view returns (uint256) {\n        return _getFee(destinationChainID);\n    }\n    /**\n        @notice Used to manually withdraw funds from ERC safes.\n        @param handlerAddress Address of handler to withdraw from.\n        @param newBridgeAddress Address of the updated _bridgeAddress.\n     */\n    function adminUpdateBridgeAddress(\n        address handlerAddress,\n        address newBridgeAddress\n    ) external onlyAdmin {\n        IERCHandler handler = IERCHandler(handlerAddress);\n        handler.updateBridgeAddress(newBridgeAddress);\n    }\n\n    /**\n        @notice Used to manually withdraw funds from ERC safes.\n        @param handlerAddress Address of handler to withdraw from.\n        @param tokenAddress Address of token to withdraw.\n        @param recipient Address to withdraw tokens to.\n        @param amountOrTokenID Either the amount of ERC20 tokens or the ERC721 token ID to withdraw.\n     */\n    function adminWithdraw(\n        address handlerAddress,\n        address tokenAddress,\n        address recipient,\n        uint256 amountOrTokenID\n    ) external onlyAdmin {\n        IERCHandler handler = IERCHandler(handlerAddress);\n        handler.withdraw(tokenAddress, recipient, amountOrTokenID);\n    }\n\n    /**\n        @notice Initiates a transfer using a specified handler contract.\n        @notice Only callable when Bridge is not paused.\n        @param destinationChainID ID of chain deposit will be bridged to.\n        @param resourceID ResourceID used to find address of handler to be used for deposit.\n        @param data Additional data to be passed to specified handler.\n        @notice Emits {Deposit} event.\n     */\n    function deposit(uint8 destinationChainID, bytes32 resourceID, bytes calldata data) external payable whenNotPaused {\n        uint256 fee = _getFee(destinationChainID);\n\n        require(msg.value == fee, \"Incorrect fee supplied\");\n\n        address handler = _resourceIDToHandlerAddress[resourceID];\n        require(handler != address(0), \"resourceID not mapped to handler\");\n\n        uint64 depositNonce = ++_depositCounts[destinationChainID];\n        _depositRecords[depositNonce][destinationChainID] = data;\n\n        IDepositExecute depositHandler = IDepositExecute(handler);\n        depositHandler.deposit(resourceID, destinationChainID, depositNonce, msg.sender, data);\n\n        emit Deposit(destinationChainID, resourceID, depositNonce);\n    }\n\n    /**\n        @notice Initiates a transfer using a specified handler contract.\n        @notice Only callable when Bridge is not paused.\n        @param destinationChainID ID of chain deposit will be bridged to.\n        @param resourceID ResourceID used to find address of handler to be used for deposit.\n        @param data Additional data to be passed to specified handler.\n        @notice Emits {Deposit} event.\n     */\n    function depositETH(uint8 destinationChainID, bytes32 resourceID, bytes calldata data) external payable whenNotPaused {\n        uint256 fee = _getFee(destinationChainID);\n\n        require(msg.value >= fee, \"Insufficient fee supplied\");\n\n        address handler = _resourceIDToHandlerAddress[resourceID];\n        require(handler != address(0), \"resourceID not mapped to handler\");\n\n        uint256 value = msg.value - fee;\n        uint256 amount;\n        assembly {\n            amount := calldataload(0x84)\n        }\n        require (value>=amount, \"msg.value and data mismatched\");\n\n        address wtokenAddress = IERCHandler(handler)._wtokenAddress();\n        require(wtokenAddress != address(0), \"_wtokenAddress is 0x\");\n        IWETH(wtokenAddress).deposit{value: value}();\n        IWETH(wtokenAddress).transfer(address(handler), value);\n\n        uint64 depositNonce = ++_depositCounts[destinationChainID];\n        _depositRecords[depositNonce][destinationChainID] = data;\n\n        IDepositExecute depositHandler = IDepositExecute(handler);\n        depositHandler.deposit(resourceID, destinationChainID, depositNonce, msg.sender, data);\n\n        emit Deposit(destinationChainID, resourceID, depositNonce);\n    }\n\n    /**\n        @notice When called, {msg.sender} will be marked as voting in favor of proposal.\n        @notice Only callable by relayers when Bridge is not paused.\n        @param chainID ID of chain deposit originated from.\n        @param depositNonce ID of deposited generated by origin Bridge contract.\n        @param dataHash Hash of data provided when deposit was made.\n        @notice Proposal must not have already been passed or executed.\n        @notice {msg.sender} must not have already voted on proposal.\n        @notice Emits {ProposalEvent} event with status indicating the proposal status.\n        @notice Emits {ProposalVote} event.\n     */\n    function voteProposal(uint8 chainID, uint64 depositNonce, bytes32 resourceID, bytes32 dataHash) external onlyRelayers whenNotPaused {\n\n        uint72 nonceAndID = (uint72(depositNonce) << 8) | uint72(chainID);\n        Proposal storage proposal = _proposals[nonceAndID][dataHash];\n\n        require(_resourceIDToHandlerAddress[resourceID] != address(0), \"no handler for resourceID\");\n        require(uint(proposal._status) <= 1, \"proposal already passed/executed/cancelled\");\n        require(!_hasVotedOnProposal[nonceAndID][dataHash][msg.sender], \"relayer already voted\");\n\n        if (uint(proposal._status) == 0) {\n            ++_totalProposals;\n            _proposals[nonceAndID][dataHash] = Proposal({\n                _resourceID : resourceID,\n                _dataHash : dataHash,\n                _yesVotes : new address[](1),\n                _noVotes : new address[](0),\n                _status : ProposalStatus.Active,\n                _proposedBlock : block.number\n                });\n\n            proposal._yesVotes[0] = msg.sender;\n            emit ProposalEvent(chainID, depositNonce, ProposalStatus.Active, resourceID, dataHash);\n        } else {\n            if (sub(block.number, proposal._proposedBlock) > _expiry) {\n                // if the number of blocks that has passed since this proposal was\n                // submitted exceeds the expiry threshold set, cancel the proposal\n                proposal._status = ProposalStatus.Cancelled;\n                emit ProposalEvent(chainID, depositNonce, ProposalStatus.Cancelled, resourceID, dataHash);\n            } else {\n                require(dataHash == proposal._dataHash, \"datahash mismatch\");\n                proposal._yesVotes.push(msg.sender);\n\n\n            }\n\n        }\n        if (proposal._status != ProposalStatus.Cancelled) {\n            _hasVotedOnProposal[nonceAndID][dataHash][msg.sender] = true;\n            emit ProposalVote(chainID, depositNonce, proposal._status, resourceID);\n\n            // If _depositThreshold is set to 1, then auto finalize\n            // or if _relayerThreshold has been exceeded\n            if (_relayerThreshold <= 1 || proposal._yesVotes.length >= _relayerThreshold) {\n                proposal._status = ProposalStatus.Passed;\n\n                emit ProposalEvent(chainID, depositNonce, ProposalStatus.Passed, resourceID, dataHash);\n            }\n        }\n\n    }\n\n    /**\n        @notice Executes a deposit proposal that is considered passed using a specified handler contract.\n        @notice Only callable by relayers when Bridge is not paused.\n        @param chainID ID of chain deposit originated from.\n        @param depositNonce ID of deposited generated by origin Bridge contract.\n        @param dataHash Hash of data originally provided when deposit was made.\n        @notice Proposal must be past expiry threshold.\n        @notice Emits {ProposalEvent} event with status {Cancelled}.\n     */\n    function cancelProposal(uint8 chainID, uint64 depositNonce, bytes32 dataHash) public onlyAdminOrRelayer {\n        uint72 nonceAndID = (uint72(depositNonce) << 8) | uint72(chainID);\n        Proposal storage proposal = _proposals[nonceAndID][dataHash];\n\n        require(proposal._status != ProposalStatus.Cancelled, \"Proposal already cancelled\");\n        require(sub(block.number, proposal._proposedBlock) > _expiry, \"Proposal not at expiry threshold\");\n\n        proposal._status = ProposalStatus.Cancelled;\n        emit ProposalEvent(chainID, depositNonce, ProposalStatus.Cancelled, proposal._resourceID, proposal._dataHash);\n\n    }\n\n    /**\n        @notice Executes a deposit proposal that is considered passed using a specified handler contract.\n        @notice Only callable by relayers when Bridge is not paused.\n        @param chainID ID of chain deposit originated from.\n        @param resourceID ResourceID to be used when making deposits.\n        @param depositNonce ID of deposited generated by origin Bridge contract.\n        @param data Data originally provided when deposit was made.\n        @notice Proposal must have Passed status.\n        @notice Hash of {data} must equal proposal's {dataHash}.\n        @notice Emits {ProposalEvent} event with status {Executed}.\n     */\n    function executeProposal(uint8 chainID, uint64 depositNonce, bytes calldata data, bytes32 resourceID) external onlyRelayers whenNotPaused {\n        address handler = _resourceIDToHandlerAddress[resourceID];\n        uint72 nonceAndID = (uint72(depositNonce) << 8) | uint72(chainID);\n        bytes32 dataHash = keccak256(abi.encodePacked(handler, data));\n        Proposal storage proposal = _proposals[nonceAndID][dataHash];\n\n        require(proposal._status != ProposalStatus.Inactive, \"proposal is not active\");\n        require(proposal._status == ProposalStatus.Passed, \"proposal already transferred\");\n        require(dataHash == proposal._dataHash, \"data doesn't match datahash\");\n\n        proposal._status = ProposalStatus.Executed;\n\n        IDepositExecute depositHandler = IDepositExecute(_resourceIDToHandlerAddress[proposal._resourceID]);\n        depositHandler.executeProposal(proposal._resourceID, data);\n\n        emit ProposalEvent(chainID, depositNonce, proposal._status, proposal._resourceID, proposal._dataHash);\n    }\n\n    /**\n        @notice Transfers eth in the contract to the specified addresses. The parameters addrs and amounts are mapped 1-1.\n        This means that the address at index 0 for addrs will receive the amount (in WEI) from amounts at index 0.\n        @param addrs Array of addresses to transfer {amounts} to.\n        @param amounts Array of amonuts to transfer to {addrs}.\n     */\n    function transferFunds(address payable[] calldata addrs, uint[] calldata amounts) external onlyAdmin {\n        for (uint256 i = 0; i < addrs.length; i++) {\n            addrs[i].transfer(amounts[i]);\n        }\n    }\n\n}\n",
  "sourcePath": "/Users/libaozhong/yidian/meter/bridge_deploy/cb-sol-cli/chainbridge-solidity/contracts/Bridge.sol",
  "compiler": {
    "name": "solc",
    "version": "0.6.4+commit.1dca32f3.Emscripten.clang"
  },
  "schemaVersion": "3.1.0",
  "updatedAt": "2021-08-14T09:32:41.925Z",
  "devdoc": {
    "author": "ChainSafe Systems.",
    "methods": {
      "adminAddOperator(address)": {
        "params": {
          "operatorAddress": "Address of operator to be added."
        }
      },
      "adminAddRelayer(address)": {
        "params": {
          "relayerAddress": "Address of relayer to be added."
        }
      },
      "adminChangeFee(uint256)": {
        "params": {
          "newFee": "Value {_fee} will be updated to."
        }
      },
      "adminChangeRelayerThreshold(uint256)": {
        "params": {
          "newThreshold": "Value {_relayerThreshold} will be changed to."
        }
      },
      "adminChangeSpecialFee(uint256,uint8)": {
        "params": {
          "chainID": "Value {_specialFeeChainID} will be updated to",
          "newFee": "Value {_specialFee} will be updated to."
        }
      },
      "adminRemoveOperator(address)": {
        "params": {
          "operatorAddress": "Address of relayer to be removed."
        }
      },
      "adminRemoveRelayer(address)": {
        "params": {
          "relayerAddress": "Address of relayer to be removed."
        }
      },
      "adminSetBurnable(address,address)": {
        "params": {
          "handlerAddress": "Address of handler resource will be set for.",
          "tokenAddress": "Address of contract to be called when a deposit is made and a deposited is executed."
        }
      },
      "adminSetGenericResource(address,bytes32,address,bytes4,uint256,bytes4)": {
        "params": {
          "contractAddress": "Address of contract to be called when a deposit is made and a deposited is executed.",
          "handlerAddress": "Address of handler resource will be set for.",
          "resourceID": "ResourceID to be used when making deposits."
        }
      },
      "adminSetResource(address,bytes32,address)": {
        "params": {
          "handlerAddress": "Address of handler resource will be set for.",
          "resourceID": "ResourceID to be used when making deposits.",
          "tokenAddress": "Address of contract to be called when a deposit is made and a deposited is executed."
        }
      },
      "adminUpdateBridgeAddress(address,address)": {
        "params": {
          "handlerAddress": "Address of handler to withdraw from.",
          "newBridgeAddress": "Address of the updated _bridgeAddress."
        }
      },
      "adminWithdraw(address,address,address,uint256)": {
        "params": {
          "amountOrTokenID": "Either the amount of ERC20 tokens or the ERC721 token ID to withdraw.",
          "handlerAddress": "Address of handler to withdraw from.",
          "recipient": "Address to withdraw tokens to.",
          "tokenAddress": "Address of token to withdraw."
        }
      },
      "cancelProposal(uint8,uint64,bytes32)": {
        "params": {
          "chainID": "ID of chain deposit originated from.",
          "dataHash": "Hash of data originally provided when deposit was made.",
          "depositNonce": "ID of deposited generated by origin Bridge contract."
        }
      },
      "constructor": {
        "params": {
          "chainID": "ID of chain the Bridge contract exists on.",
          "initialRelayerThreshold": "Number of votes needed for a deposit proposal to be considered passed.",
          "initialRelayers": "Addresses that should be initially granted the relayer role."
        }
      },
      "deposit(uint8,bytes32,bytes)": {
        "params": {
          "data": "Additional data to be passed to specified handler.",
          "destinationChainID": "ID of chain deposit will be bridged to.",
          "resourceID": "ResourceID used to find address of handler to be used for deposit."
        }
      },
      "depositETH(uint8,bytes32,bytes)": {
        "params": {
          "data": "Additional data to be passed to specified handler.",
          "destinationChainID": "ID of chain deposit will be bridged to.",
          "resourceID": "ResourceID used to find address of handler to be used for deposit."
        }
      },
      "executeProposal(uint8,uint64,bytes,bytes32)": {
        "params": {
          "chainID": "ID of chain deposit originated from.",
          "data": "Data originally provided when deposit was made.",
          "depositNonce": "ID of deposited generated by origin Bridge contract.",
          "resourceID": "ResourceID to be used when making deposits."
        }
      },
      "getProposal(uint8,uint64,bytes32)": {
        "params": {
          "dataHash": "Hash of data to be provided when deposit proposal is executed.",
          "depositNonce": "ID of proposal generated by proposal's origin Bridge contract.",
          "originChainID": "Chain ID deposit originated from."
        },
        "returns": {
          "_0": "Proposal which consists of: - _dataHash Hash of data to be provided when deposit proposal is executed. - _yesVotes Number of votes in favor of proposal. - _noVotes Number of votes against proposal. - _status Current status of proposal."
        }
      },
      "getRoleAdmin(bytes32)": {
        "details": "Returns the admin role that controls `role`. See {grantRole} and {revokeRole}.     * To change a role's admin, use {_setRoleAdmin}."
      },
      "getRoleMember(bytes32,uint256)": {
        "details": "Returns one of the accounts that have `role`. `index` must be a value between 0 and {getRoleMemberCount}, non-inclusive.     * Role bearers are not sorted in any particular way, and their ordering may change at any point.     * WARNING: When using {getRoleMember} and {getRoleMemberCount}, make sure you perform all queries on the same block. See the following https://forum.openzeppelin.com/t/iterating-over-elements-on-enumerableset-in-openzeppelin-contracts/2296[forum post] for more information."
      },
      "getRoleMemberCount(bytes32)": {
        "details": "Returns the number of accounts that have `role`. Can be used together with {getRoleMember} to enumerate all bearers of a role."
      },
      "grantRole(bytes32,address)": {
        "details": "Grants `role` to `account`.     * If `account` had not been already granted `role`, emits a {RoleGranted} event.     * Requirements:     * - the caller must have ``role``'s admin role."
      },
      "hasRole(bytes32,address)": {
        "details": "Returns `true` if `account` has been granted `role`."
      },
      "isOperator(address)": {
        "params": {
          "operator": "Address to check."
        }
      },
      "isRelayer(address)": {
        "params": {
          "relayer": "Address to check."
        }
      },
      "paused()": {
        "details": "Returns true if the contract is paused, and false otherwise."
      },
      "renounceAdmin(address)": {
        "params": {
          "newAdmin": "Address that admin role will be granted to."
        }
      },
      "renounceRole(bytes32,address)": {
        "details": "Revokes `role` from the calling account.     * Roles are often managed via {grantRole} and {revokeRole}: this function's purpose is to provide a mechanism for accounts to lose their privileges if they are compromised (such as when a trusted device is misplaced).     * If the calling account had been granted `role`, emits a {RoleRevoked} event.     * Requirements:     * - the caller must be `account`."
      },
      "revokeRole(bytes32,address)": {
        "details": "Revokes `role` from `account`.     * If `account` had been granted `role`, emits a {RoleRevoked} event.     * Requirements:     * - the caller must have ``role``'s admin role."
      },
      "transferFunds(address[],uint256[])": {
        "params": {
          "addrs": "Array of addresses to transfer {amounts} to.",
          "amounts": "Array of amonuts to transfer to {addrs}."
        }
      },
      "voteProposal(uint8,uint64,bytes32,bytes32)": {
        "params": {
          "chainID": "ID of chain deposit originated from.",
          "dataHash": "Hash of data provided when deposit was made.",
          "depositNonce": "ID of deposited generated by origin Bridge contract."
        }
      }
    },
    "title": "Facilitates deposits, creation and votiing of deposit proposals, and deposit executions."
  },
  "userdoc": {
    "methods": {
      "adminAddOperator(address)": {
        "notice": "Grants {operatorAddress} the relayer role and increases {_totalOperator} count.Only callable by an address that currently has the admin role.Emits {OperatorAdded} event."
      },
      "adminAddRelayer(address)": {
        "notice": "Grants {relayerAddress} the relayer role and increases {_totalRelayer} count.Only callable by an address that currently has the admin role.Emits {RelayerAdded} event."
      },
      "adminChangeFee(uint256)": {
        "notice": "Changes deposit fee.Only callable by admin."
      },
      "adminChangeRelayerThreshold(uint256)": {
        "notice": "Modifies the number of votes required for a proposal to be considered passed.Only callable by an address that currently has the admin role.Emits {RelayerThresholdChanged} event."
      },
      "adminChangeSpecialFee(uint256,uint8)": {
        "notice": "Changes deposit fee.Only callable by admin."
      },
      "adminPauseTransfers()": {
        "notice": "Pauses deposits, proposal creation and voting, and deposit executions.Only callable by an address that currently has the admin role."
      },
      "adminRemoveOperator(address)": {
        "notice": "Removes operator role for {operatorAddress} and decreases {_totalOperator} count.Only callable by an address that currently has the admin role.Emits {OperatorRemoved} event."
      },
      "adminRemoveRelayer(address)": {
        "notice": "Removes relayer role for {relayerAddress} and decreases {_totalRelayer} count.Only callable by an address that currently has the admin role.Emits {RelayerRemoved} event."
      },
      "adminSetBurnable(address,address)": {
        "notice": "Sets a resource as burnable for handler contracts that use the IERCHandler interface.Only callable by an address that currently has the admin role."
      },
      "adminSetGenericResource(address,bytes32,address,bytes4,uint256,bytes4)": {
        "notice": "Sets a new resource for handler contracts that use the IGenericHandler interface, and maps the {handlerAddress} to {resourceID} in {_resourceIDToHandlerAddress}.Only callable by an address that currently has the admin role."
      },
      "adminSetResource(address,bytes32,address)": {
        "notice": "Sets a new resource for handler contracts that use the IERCHandler interface, and maps the {handlerAddress} to {resourceID} in {_resourceIDToHandlerAddress}.Only callable by an address that currently has the admin role."
      },
      "adminUnpauseTransfers()": {
        "notice": "Unpauses deposits, proposal creation and voting, and deposit executions.Only callable by an address that currently has the admin role."
      },
      "adminUpdateBridgeAddress(address,address)": {
        "notice": "Used to manually withdraw funds from ERC safes."
      },
      "adminWithdraw(address,address,address,uint256)": {
        "notice": "Used to manually withdraw funds from ERC safes."
      },
      "cancelProposal(uint8,uint64,bytes32)": {
        "notice": "Executes a deposit proposal that is considered passed using a specified handler contract.Only callable by relayers when Bridge is not paused.Proposal must be past expiry threshold.Emits {ProposalEvent} event with status {Cancelled}."
      },
      "constructor": "Initializes Bridge, creates and grants {msg.sender} the admin role, creates and grants {initialRelayers} the relayer role.",
      "deposit(uint8,bytes32,bytes)": {
        "notice": "Initiates a transfer using a specified handler contract.Only callable when Bridge is not paused.Emits {Deposit} event."
      },
      "depositETH(uint8,bytes32,bytes)": {
        "notice": "Initiates a transfer using a specified handler contract.Only callable when Bridge is not paused.Emits {Deposit} event."
      },
      "executeProposal(uint8,uint64,bytes,bytes32)": {
        "notice": "Executes a deposit proposal that is considered passed using a specified handler contract.Only callable by relayers when Bridge is not paused.Proposal must have Passed status.Hash of {data} must equal proposal's {dataHash}.Emits {ProposalEvent} event with status {Executed}."
      },
      "getProposal(uint8,uint64,bytes32)": {
        "notice": "Returns a proposal."
      },
      "isOperator(address)": {
        "notice": "Returns true if {operator} has the operator role."
      },
      "isRelayer(address)": {
        "notice": "Returns true if {relayer} has the relayer role."
      },
      "renounceAdmin(address)": {
        "notice": "Removes admin role from {msg.sender} and grants it to {newAdmin}.Only callable by an address that currently has the admin role."
      },
      "transferFunds(address[],uint256[])": {
        "notice": "Transfers eth in the contract to the specified addresses. The parameters addrs and amounts are mapped 1-1. This means that the address at index 0 for addrs will receive the amount (in WEI) from amounts at index 0."
      },
      "voteProposal(uint8,uint64,bytes32,bytes32)": {
        "notice": "When called, {msg.sender} will be marked as voting in favor of proposal.Only callable by relayers when Bridge is not paused.Proposal must not have already been passed or executed.{msg.sender} must not have already voted on proposal.Emits {ProposalEvent} event with status indicating the proposal status.Emits {ProposalVote} event."
      }
    }
  }
}